:100000000C9461000C9473000C9473000C947300B6
:100010000C9473000C9473000C9473000C94730094
:100020000C9473000C9473000C9473000C94730084
:100030000C9473000C9473000C9473000C94730074
:100040000C9468010C9473000C9473000C9473006E
:100050000C9473000C9473000C9473000C94730054
:100060000C9473000C947300000000002300260021
:10007000290000000000240027002A0000000000E2
:10008000250028002B0004040404040404040202D4
:100090000202020203030303030301020408102007
:1000A0004080010204081020010204081020000012
:1000B0000008000201000003040700000000000027
:1000C000000011241FBECFEFD8E0DEBFCDBF21E07E
:1000D000A0E0B1E001C01D92A930B207E1F70E9493
:1000E000B2010C9496020C940000833081F028F445
:1000F000813099F08230A1F008958730A9F08830DE
:10010000B9F08430D1F4809180008F7D03C080915C
:1001100080008F7780938000089584B58F7702C028
:1001200084B58F7D84BD08958091B0008F7703C022
:100130008091B0008F7D8093B00008951F93CF937E
:10014000DF93282F30E0F901E255FF4F8491F90148
:10015000E656FF4FD491F901EA57FF4FC491CC23E3
:10016000C1F0162F81110E947500EC2FF0E0EE0F08
:10017000FF1FE458FF4FA591B4919FB7F894111158
:1001800004C08C91D095D82302C0EC91DE2BDC9377
:100190009FBFDF91CF911F910895CF93DF9390E0A0
:1001A000FC01E656FF4F2491FC01EA57FF4F849172
:1001B000882361F190E0880F991FFC01EE58FF4FF2
:1001C000C591D491FC01E458FF4FA591B491611100
:1001D00009C09FB7F8948881209582238883EC9189
:1001E0002E230BC0623061F49FB7F8948881322FC0
:1001F000309583238883EC912E2B2C939FBF06C0D0
:100200008FB7F894E8812E2B28838FBFDF91CF9191
:1002100008953FB7F8948091050190910601A0914F
:100220000701B091080126B5A89B05C02F3F19F022
:100230000196A11DB11D3FBFBA2FA92F982F882766
:10024000820F911DA11DB11DBC01CD0142E0660FC1
:10025000771F881F991F4A95D1F708958F929F9213
:10026000AF92BF92CF92DF92EF92FF926B017C012F
:100270000E9409014B015C01C114D104E104F104A5
:10028000F1F00E940901DC01CB0188199909AA0942
:10029000BB09883E9340A105B10570F321E0C21A65
:1002A000D108E108F10888EE880E83E0981EA11CB1
:1002B000B11CC114D104E104F10419F7DDCFFF90A2
:1002C000EF90DF90CF90BF90AF909F908F90089568
:1002D0001F920F920FB60F9211242F933F938F937B
:1002E0009F93AF93BF938091010190910201A091E0
:1002F0000301B09104013091000123E0230F2D3759
:1003000020F40196A11DB11D05C026E8230F029619
:10031000A11DB11D20930001809301019093020162
:10032000A0930301B093040180910501909106010F
:10033000A0910701B09108010196A11DB11D809304
:10034000050190930601A0930701B0930801BF91A6
:10035000AF919F918F913F912F910F900FBE0F9072
:100360001F901895789484B5826084BD84B58160AF
:1003700084BD85B5826085BD85B5816085BD809170
:100380006E00816080936E001092810080918100E8
:1003900082608093810080918100816080938100E0
:1003A000809180008160809380008091B1008460A2
:1003B0008093B1008091B00081608093B000809103
:1003C0007A00846080937A0080917A0082608093C2
:1003D0007A0080917A00816080937A0080917A001F
:1003E000806880937A001092C10060E081E10E94F1
:1003F000CD0060E08DE00E94CD0061E085E00E94CC
:10040000CD0061E086E00E94CD0061E088E00E94BE
:10041000CD0061E087E00E94CD0061E089E00E94AC
:10042000CD009BEBE92E90E0F92E27EAC22E20E0CA
:10043000D22E33E9A32E30E0B32E40E0842E40E0EC
:10044000942E53E4752E70927C0080917A00806423
:1004500080937A0080917A0086FDFCCFC09178006D
:1004600080917900D0E0D82BF7018491F6011491A6
:10047000F50104910023A1F081110E947500E02F85
:10048000F0E0EE0FFF1FE859FF4FA591B4918C915A
:10049000182391E080E009F490E0092F182F02C0A2
:1004A00000E010E064EF71E080E090E00E942E0137
:1004B0000130110541F461E088E00E949E006697DA
:1004C00054F061E031C060E088E00E949E006697D1
:1004D000C4F760E029C060E087E00E949E0061E010
:1004E00089E00E949E0061E085E00E949E0060E03D
:1004F00086E00E949E0060ED77E080E090E00E9440
:100500002E0160E089E00E949E0061E085E00E948B
:100510009E0061E086E00E949E008114910409F42F
:1005200092CF0E9400008FCF87E0F5CFF894FFCFE5
:00000001FF
